:020000040800F2
:1000000080460020F5460008FD460008FF4600082F
:1000100001470008034700080547000800000000EA
:100020000000000000000000000000003502000891
:10003000094700080000000079020008932B00081F
:100040000F4700080F4700080F4700080F47000838
:100050000F4700080F4700080F4700080F47000828
:100060000F4700080F4700080F4700080F47000818
:100070000F4700080F4700080F4700080F47000808
:100080000F4700080F4700080F4700080F470008F8
:100090000F4700080F4700080F4700080F470008E8
:1000A0000F4700080F4700080F4700080F470008D8
:1000B000A70800080F4700080F4700080F4700086F
:1000C0000F4700080F4700080F4700080F470008B8
:1000D0000F4700080F4700080F4700080F470008A8
:1000E0000F4700080F4700080F47000800F002F80C
:1000F00000F090F80AA090E8000C82448344AAF132
:100100000107DA4501D100F085F8AFF2090EBAE82F
:100110000F0013F0010F18BFFB1A43F0010318473B
:100120001C6100003C610000103A24BF78C878C10F
:10013000FAD8520724BF30C830C144BF04680C60ED
:10014000704700000023002400250026103A28BF35
:1001500078C1FBD8520728BF30C148BF0B60704739
:100160006E2904F02D87702904F06F85662905F04B
:10017000E787652905F0E487672905F0E1876129AC
:10018000AFF3008003681B0A28BF41F08001692992
:1001900004F04A84642904F04784752904F04484F7
:1001A0006F2904F0FC84782904F03B85E92904F0E8
:1001B0006587E42904F06287F52904F05F87EF2959
:1001C00004F0F984F82904F03A850368DB0928BFB4
:1001D00041F08001632904F02E87732904F03387EE
:1001E000E32904F03E87F32904F043870020704799
:1001F0001FB505F09BFA04000020002105F074FFF4
:10020000401C60600020002105F084FFE0601FBDFD
:1002100010B510BD05F065FA1146FFF7E9FF00F0D3
:10022000C4F905F035FB03B4FFF7F2FF03BC05F09A
:100230007DFB0000224B19680868B0E8F00F80F3DE
:100240000988BFF36F8F4FF0000080F311884EF0E4
:100250000D0E70470000000006480068006880F33B
:10026000088862B661B6BFF34F8FBFF36F8F00DFB0
:1002700000BF00BF08ED00E0EFF30980BFF36F8F10
:100280000F4B1A6820E9F00F106008B54FF0BF005F
:1002900080F31188BFF34F8FBFF36F8F01F0EBFA3C
:1002A0004FF0000080F31188BDE808401968086825
:1002B000B0E8F00F80F30988BFF36F8F704700BF7D
:1002C00030000020EFF3058070470000FD49096809
:1002D00001F0010179B1FB498039096801F00101A0
:1002E00049B100E000BF4FF0604109680029F9D032
:1002F0004FF060421070704710B5044600BF802177
:10030000F14804F09DF90028F9D02146EE4804F0A8
:1003100029F910BD10B5044603E014F8010BFFF7EE
:10032000EBFF20780028F8D110BD00BFE748C06877
:1003300080F00100E549C860642001F0BFF9F5E7ED
:1003400010B5044603E014F8010BFFF7BFFF207857
:100350000028F8D10A20FFF7B9FF10BD8EB000BF0A
:1003600000234FF4FA726946D948006800F05EFD38
:1003700010B16846FFF7CEFF00234FF4FA720DA9C3
:10038000D448006800F052FD0028E9D00D98FFF72E
:10039000D7FFE5E700BFD04801F038FF00231A4639
:1003A000CE49CC48006800F0F5FB4FF47A7001F0BC
:1003B00085F9F0E700BFCA49CA4A127851F822000D
:1003C0008047F8E700BFC848006880F02000C649B1
:1003D00008604FF4FA7001F071F9F4E70FB408B552
:1003E00003A80090C148009A029904F093FA0020F3
:1003F000009000231A46BD49B548006800F0CAFBCA
:1004000001B05DF814FB10B50446B9A0FFF7E6FF94
:10041000BA480068401CB949086010BDB848007867
:10042000012803D10020B649087002E00120B44938
:1004300008707047AB480078022805DAA9480078B0
:10044000401CA849087002E00020A64908707047C7
:1004500070B505460726FFF7EDFF284602F019FBA9
:100460000446641C2146A7A0FFF7B8FF0720B4FB91
:10047000F0F100FB114020B9FFF7D0FFA7A0FFF774
:10048000ADFF2146284602F025FB70BD10B54FF4A4
:100490006011002002F0D2FE022002F0DEFE0020F9
:1004A00002F0E9FE4FF4806002F0EEFE10BD1FB5D1
:1004B0000121084602F0B5FF0020ADF8060040F229
:1004C0003F10ADF804000920ADF8080001A980072D
:1004D00003F0D2F801221146900703F044FC0121F9
:1004E000880703F025FC1C208DF8000000208DF803
:1004F00001008DF8020001208DF80300684602F02B
:10050000FEFB1FBD00B585B001213C2002F07CFF41
:100510000121084602F078FF0121480402F081FF22
:1005200004A802F040FD0420ADF8100018208DF85A
:10053000130004A96C480C3802F0AAFC0820ADF89E
:10054000100004208DF8130004A967480C3802F04D
:100550009FFC684603F076FF4FF416500090694602
:10056000594803F006FF0121574803F08EFF05B0FC
:1005700000BD08B50121142002F046FF684602F0D4
:1005800012FD40F26130ADF8000002208DF802004B
:1005900010208DF80300694653480C3802F078FCAF
:1005A00069464A4802F074FC08BD1CB5FFF7E1FF3C
:1005B000FFF7A8FFFFF77BFFFFF768FF002204218A
:1005C000082000F03FFA4349086000223221082049
:1005D00000F038FA3E490860AFF28B100023012288
:1005E00040F6B831009053A002F01CFA564908605A
:1005F000AFF2ED100023012243F69821009053A0A2
:1006000002F010FA5449086031480068002858D0B8
:1006100030480068002854D0002002210346802280
:10062000CDE900104DA1AFF2632000F029FE0020BB
:10063000022103468022CDE900104DA1AFF28B20AC
:1006400000F01EFE0020022103468022CDE90010AA
:100650004CA1AFF2BF2000F013FE002001210346A1
:100660008022CDE900104CA1AFF20F3000F008FE5F
:100670000020022103468022CDE900104BA1AFF2F9
:10068000553000F0FDFD30480068D0B132480068B8
:10069000B8B101F0ACFA044600200346224601211D
:1006A00000902948006802F021F801F0A0FA044601
:1006B000002003462246012100902748006802F0EE
:1006C00015F87DE0800E00E000440040001001407D
:1006D0001C00002020000020CC000020040000208E
:1006E00008000020010000200C080140CC0200207E
:1006F0000A416C61726D210A0A000000240000208A
:1007000000000020436F756E7465722076616C7511
:1007100065203D20257A750A000000004368616E5F
:100720006765206F6620646972656374696F6E2106
:100730000A00000053746570706572204D6F746F0D
:10074000722054696D65720014000020416C617262
:100750006D2054696D657200180000204772656550
:100760006E4C65645461736B2020202020000000D3
:10077000537465707065724D6F746F722020202005
:10078000200000004765744D79537461747354619F
:10079000736B202020000000476174656B656570F5
:1007A00065725461736B2020200000005265644C18
:1007B00065645461736B20202020202020000000FD
:1007C00048A0FFF7A7FD01F0D7F900BFFEE72DE92C
:1007D000F04105460E4617464648007801281ED1CE
:1007E000002419E04448C06835F8141048404249D4
:1007F000C8604FF47A7078434FF47A71B0FBF1F827
:10080000404600F05BFF3C48C06835F81410484093
:100810003949C860601C44B2B442E3DB1EE0701E7C
:1008200044B219E03448C06835F8141048403249E1
:10083000C8604FF47A7078434FF47A71B0FBF1F8E6
:10084000404600F03BFF2C48C06835F81410484083
:100850002949C860601E44B2002CE3DABDE8F0818B
:100860001CB5264903C9CDE900010A2204216846C6
:10087000FFF7ADFF1CBD1FB5204B08330FCB8DE834
:100880000F00042208216846FFF7A1FF1FBD1CB519
:100890001A49183103C9CDE900010522042168462F
:1008A000FFF795FF1CBD10B50121880703F009FD76
:1008B000012808D112480068401C11490860012134
:1008C000880703F00FFD10BD70B504460D462A469B
:1008D00021460C4804F030F80B480068FFF71AFD79
:1008E00070BD000053797374656D20737461727408
:1008F0000A000000000000200010014044610008D0
:1009000028000020FE0200202C00002000F1080139
:1009100041604FF0FF31816000F10801C160016169
:1009200000210160704700210161704742684A6000
:1009300093688B60936859609160086103685B1CE1
:100940000360704710B502460B685C1C0CB9106957
:1009500007E002F1080000E04068446824689C4217
:10096000FAD944684C604C68A160886041600A61B3
:100970001468641C146010BD01460A69D1E9013095
:100980009860D1E9010358605068884201D18868B5
:100990005060002008611068401E106010687047A9
:1009A00070B505460E462C4602F0D6F8D4E90F1273
:1009B000206801FB020060600020A0632068A06046
:1009C000E06B401E226C216800FB0210E060FF20FB
:1009D00084F8440084F845009EB9206908B90120D4
:1009E00000E00020A8B904F1100001F037FA80B14E
:1009F0004FF08050F7490860BFF34F8FBFF36F8F00
:100A000007E004F11000FFF781FF04F12400FFF775
:100A10007DFF02F0B0F8012070BD2DE9F0410646DF
:100A20000D4617469846069C0DB9246000E02760E5
:100A3000E663256401212046FFF7B2FF84F84C806D
:100A4000BDE8F0812DE9F84307460D4690460DB903
:100A5000002601E007FB05F606F1500002F0CDF894
:100A6000044644B104F1500943464A4629463846F3
:100A70000094FFF7D2FF2046BDE8F88370B5044626
:100A800002F06AF894F9455010E0606A08B9012054
:100A900000E0002038B904F1240001F0DFF918B1BA
:100AA00001F070FA00E003E0681E45B2002DECDCB6
:100AB00000BFFF2084F8450002F05DF802F04CF81A
:100AC00094F9445010E0206908B9012000E00020AA
:100AD00048B904F1100001F0C1F908B101F052FA6F
:100AE000681E45B200E001E0002DECDC00BFFF20F5
:100AF00084F8440002F03FF870BD70B5054602F07E
:100B00002BF8A86BE96B884201D1012400E0002496
:100B100002F031F8204670BD2DE9F04104460F4641
:100B200015464FF00008A66B206C40B9206860BBEA
:100B3000606801F097FA80460020606025E07DB98A
:100B40003946226CA06804F092F9216CA068084430
:100B5000A060D4E90110884217D32068A06014E097
:100B60003946226CE06804F082F9216CE068401A92
:100B7000E0602168E068884203D2216C6068401A16
:100B8000E060022D01D106B1761E701CA0634046C4
:100B9000BDE8F0812DE9FF4383B0074688461D4636
:100BA0004FF000093C4600BF01F0D6FFA06BE16B9F
:100BB000884201D3022D28D12A4641462046FFF71C
:100BC000ABFF0646606A08B9012000E0002068B962
:100BD00004F1240001F042F988B14FF080507D49C2
:100BE0000860BFF34F8FBFF36F8F08E03EB14FF047
:100BF000805078490860BFF34F8FBFF36F8F01F0CB
:100C0000BAFF012007B0BDE8F083059818B901F0DC
:100C1000B2FF0020F6E7B9F1000F04D101A801F0FE
:100C200080F94FF0010901F0A6FF00F00CFD01F082
:100C300093FF94F94400401C10B9002084F844004C
:100C400094F94500401C10B9002084F8450001F0DB
:100C500092FF05A901A801F06BF9F0B92046FFF752
:100C60004CFFA0B104F11000059901F0C3F8204633
:100C7000FFF704FF00F01CFC002895D14FF08050D6
:100C800054490860BFF34F8FBFF36F8F8CE7204646
:100C9000FFF7F4FE00F00CFC86E72046FFF7EEFEBF
:100CA00000F006FC0020ADE710B504464CB1002072
:100CB00060602060E06000231A4619462046FFF776
:100CC00069FF10BD2DE9F0410446012600272246A8
:100CD00000210120FFF7B6FE05462846FFF7E4FF96
:100CE0002846BDE8F0812DE9F05F05468A461646A4
:100CF0001F462C4600BFBF21EFF3118081F31188FE
:100D0000BFF34F8FBFF36F8F00BF8146A06BE16BC6
:100D1000884201D3022F20D194F945B03A4651467A
:100D20002046FFF7F9FE0BF1010070B9606A08B9BF
:100D3000012000E0002068B904F1240001F08EF8E1
:100D400040B13EB10120306004E00BF1010040B23F
:100D500084F845004FF0010801E04FF0000800BFA3
:100D600089F3118800BF4046BDE8F09F2DE9F047A8
:100D700005460E462C4600BFBF21EFF3118081F3DC
:100D80001188BFF34F8FBFF36F8F00BF8046D4F839
:100D90003890E06B48451FD994F945A009F101004E
:100DA000A0630AF1010070B9606A08B9012000E08F
:100DB000002068B904F1240001F050F840B13EB1C0
:100DC0000120306004E00AF1010040B284F84500DF
:100DD000012702E004ED00E0002700BF88F311883E
:100DE00000BF3846BDE8F08770B5054601F0B4FE97
:100DF000A86B08B9012400E0002401F0BCFE2046E5
:100E000070BD70B504460D46206C70B1216CE06871
:100E10000844E0606168E068884201D32068E060CF
:100E20002846226CE16804F022F870BD2DE9FF47E6
:100E300082B0054689461E464FF0000A2C4600BF88
:100E400001F08AFED4F83880B8F1000F3BD0E76893
:100E500049462046FFF7D5FFDEB9A8F10100A0639F
:100E6000206810B901F039FA6060206908B90120E2
:100E700000E0002008BB04F1100000F0EFFFE0B13B
:100E80004FF08050A0490860BFF34F8FBFF36F8FC2
:100E900013E0E760606A08B9012000E0002060B953
:100EA00004F1240000F0DAFF38B14FF08050964989
:100EB0000860BFF34F8FBFF36F8F01F05CFE01201E
:100EC00006B0BDE8F087049818B901F054FE002080
:100ED000F6E7BAF1000F04D1684601F022F84FF0AE
:100EE000010A01F048FE00F0AEFB01F035FE94F976
:100EF0004400401C10B9002084F8440094F94500D7
:100F0000401C10B9002084F8450001F034FE04A90B
:100F1000684601F00DF840BB2046FFF765FFF0B1D1
:100F2000206830B901F018FE606801F049F801F05E
:100F300022FE04F12400049900F05CFF2046FFF734
:100F40009DFD00F0B5FA00287FF47AAF4FF0805095
:100F50006D490860BFF34F8FBFF36F8F70E7204676
:100F6000FFF78CFD00F0A4FA6AE72046FFF786FD44
:100F700000F09EFA2046FFF737FF0028EED0002051
:100F80009EE72DE9F05F05468A4616462C4600BFCF
:100F9000BF21EFF3118081F31188BFF34F8FBFF3AF
:100FA0006F8F00BF8046D4F83890B9F1000F21D080
:100FB00094F944B051462046FFF723FFA9F1010000
:100FC000A0630BF1010070B9206908B9012000E0AD
:100FD000002068B904F1100000F040FF40B13EB1BC
:100FE0000120306004E00BF1010040B284F84400BD
:100FF000012700E0002700BF88F3118800BF3846B2
:10100000BDE8F09F2DE9F047054689462C4600BF14
:10101000BF21EFF3118081F31188BFF34F8FBFF32E
:101020006F8F00BF0746A06B48B1D4F80C804946CB
:101030002046FFF7E6FEC4F80C80012600E00026FB
:1010400000BF87F3118800BF3046BDE8F08770B558
:10105000044601F081FDA56B01F08DFD284670BDB1
:1010600070B50446254601F077FDD5E90E10461A05
:1010700001F081FD304670BD0146886B704770B548
:1010800004462546284601F00BFE70BD0146886CDB
:10109000704781647047014691F84C0070470146E3
:1010A0008A6B0AB9012000E00020704701468A6B74
:1010B000CB6B9A4201D1012000E0002070472DE95E
:1010C000F04105460E4617462C4601F045FD94F9C1
:1010D0004400401C10B9002084F8440094F94500F5
:1010E000401C10B9002084F8450001F044FDA06BBD
:1010F00028B93A46314604F1240000F09DFE20460E
:10110000FFF7BCFCBDE8F08104ED00E010B5002461
:1011100007E004EB8401FE4A02EB8100FFF7F6FBD7
:10112000641C052CF5D3FB48FFF7F0FBFA48FFF7EA
:10113000EDFBFA48FFF7EAFBF948FFF7E7FBF94850
:10114000FFF7E4FBF348F8490860F348F749086003
:1011500010BD10B5044601F0FFFCF5480068401CC6
:10116000F3490860F348006840B9F2480460084653
:10117000006801280DD1FFF7C9FF0AE0EE480068BA
:1011800038B9EC480068C06AE16A884201D8E94889
:101190000460EA480068401CE849086008460068A6
:1011A000606494F82C1001208840E54909680843E0
:1011B000E3490860E16A01EB8101D54A02EB810055
:1011C000211DFFF7B3FB01F0D6FCDB48006868B1D6
:1011D000D8480068C06AE16A884207D24FF0805060
:1011E000D8490860BFF34F8FBFF36F8F10BD2DE953
:1011F000F05F81460F4690469A460A9E0C9C4FEA45
:101200008801A522206B03F077FEA8F10100216B75
:1012100001EB800B2BF0070B002507E0795D04F153
:1012200034004155785D00B902E06D1C102DF5D3F6
:1012300000BF002143200155052E00D30426E6629D
:10124000E66400202065201DFFF76DFB04F1180007
:10125000FFF769FB2461C6F10500A061646200200C
:101260006065A06584F85C0052464946584601F026
:1012700046FC20600B9808B10B980460BDE8F09F15
:101280002DE9FF4F85B0804689461746DDE912AB50
:10129000B80001F0B2FC064656B1602001F0ADFC8A
:1012A00004460CB1266304E0304601F0F9FC00E08E
:1012B00000247CB10020CDE900ABCDE902403A46E4
:1012C00049464046089BFFF792FF2046FFF741FF43
:1012D000012501E04FF0FF35284609B0BDE8F08F49
:1012E00091490968096809B9012100E0002121B18B
:1012F0004FF0FF31944A116006E08B490968C968D4
:10130000C868914A41681160704710B50446206B67
:1013100001F0C6FC204601F0C3FC10BD70B50546C7
:1013200001F01AFC15B98348006800E0284604461D
:10133000201DFFF721FB78B9E06A00EB80007449BB
:1013400051F8200040B994F82C10012088407C49C5
:10135000096881437A480160A06A18B104F1180055
:10136000FFF70AFB75480068401C74490860714823
:101370000068844209D1211D6948FFF7D7FA7348F4
:101380000068401C7149086009E069480068401E17
:10139000674908602046FFF7B8FFFFF7A1FF01F09B
:1013A000EAFB6548006858B162480068844207D18A
:1013B0004FF0805063490860BFF34F8FBFF36F8FCA
:1013C00070BD2DE9F041002761480068002863D115
:1013D00060480068451C5F4805608DB95248D0F8E8
:1013E000008052480068504908605048C0F80080AA
:1013F00059480068401C58490860FFF771FF00BF5A
:101400005148006885423BD300BF474800680068E8
:1014100008B9012000E0002020B14FF0FF304A4918
:1014200008602CE040480068C068C4686668B5423F
:1014300002D24548066022E0201DFFF79DFAA06A0F
:1014400018B104F11800FFF797FA94F82C10012056
:1014500088403B490968084339490860E16A01EB63
:1014600081012B4A02EB8100211DFFF75FFA314910
:10147000E06A0968C96A8842C7D30127C5E700BF87
:101480002C480068C06A00EB8000214951F8200018
:10149000012800D9012704E030480068401C2F498A
:1014A00008602F48006800B101273846BDE8F08188
:1014B00070B50024002601F04FFB25480068401E4F
:1014C000234908600846006800287AD11848006857
:1014D000002876D04FE01148C068C46804F11800B5
:1014E000FFF74AFA201DFFF747FA94F82C10012065
:1014F000884013490968084311490860E16A01EB13
:101500008101034A02EB8100211DFFF70FFA29E058
:101510003003002094030020A8030020BC03002017
:10152000D0030020E4030020340000203800002015
:1015300040000020300000204C0000205C00002013
:101540004800002004ED00E0600000203C00002086
:1015500068000020440000205800002050000020B7
:1015600054000020FE49E06A0968C96A884202D333
:101570000120FC490860FC48006808B9012000E02F
:1015800000200028A7D00CB1FFF7AAFEF748056895
:1015900065B100BFFFF715FF10B10120F1490860E8
:1015A0006D1E002DF6D10020F0490860ED4800685E
:1015B00038B101263007EE490860BFF34F8FBFF303
:1015C0006F8F01F0D8FA304670BD2DE9F041054625
:1015D0000E46E8480768E2480068001DFFF7CCF9AE
:1015E00050B9DF48006890F82C1001208840E2498B
:1015F00009688143E0480160681C38B936B1D848B1
:101600000168091DDD48FFF791F91AE07C19D448FB
:1016100000684460BC4207D2D1480168091DD8481F
:101620000068FFF78FF90CE0CD480168091DD54827
:101630000068FFF787F9D4480068844201D2D24895
:101640000460BDE8F081D1480068401CCF490860C3
:1016500070472DE9F047044688464FF00009FFF730
:10166000F2FFC4480668206800EB08052068B04215
:1016700007D92068A8420BD9B54209D94FF0010912
:1016800006E02068A84201D8B54201D94FF001090F
:101690002560B9F1000F03D0A81B0021FFF795FFCB
:1016A000FFF706FF07463FB94FF08050B04908608A
:1016B000BFF34F8FBFF36F8FBDE8F08770B504465F
:1016C000002544B1FFF7BFFF00212046FFF77DFF53
:1016D000FFF7EEFE05463DB94FF08050A449086083
:1016E000BFF34F8FBFF36F8F70BD2DE9F0410646FA
:1016F00037469B480068874201D100241EE001F074
:101700002BFA7D6901F037FA9E480068854203D0C4
:101710009B480068854201D102240FE0974885422A
:1017200005D1B86A08B9032408E0022406E0984805
:10173000854200D00DB9042400E001242046BDE814
:10174000F08170B5044601F007FA14B984480068C6
:1017500000E020460646F56A01F00DFA284670BD05
:1017600070B5024600BFBF25EFF3118485F31188E1
:10177000BFF34F8FBFF36F8F00BF214612B9784C74
:10178000246800E014462346D86A00BF81F311881C
:1017900000BF70BD2DE9F04780460D464FF00009AF
:1017A000052D00D3042501F0D7F9B8F1000F02D1BF
:1017B0006B48006800E040460446E66CAE4256D0F6
:1017C000B5420BD96648006884420DD06448006871
:1017D000C06AA84208D84FF0010905E060480068D7
:1017E000844201D14FF00109E76AE16AE06C884266
:1017F00000D1E562E564A06900F0004010B9C5F1D0
:101800000500A06107EB8701624A02EB8101606974
:10181000884201D1012000E00020E0B1201DFFF747
:10182000ABF830B90120B8405349096881435248A8
:10183000016094F82C10012088404F490968084342
:101840004D490860E16A01EB8101524A02EB8100D7
:10185000211DFFF76BF8B9F1000F07D04FF0805052
:1018600043490860BFF34F8FBFF36F8F00BF01F094
:1018700082F9BDE8F0874548006818B10120394970
:10188000086037E000203749086043480068434952
:101890000860084600684249096888420BD9304907
:1018A000096801F15400496D3C4A12683C4B1B68C1
:1018B000D21A1144016039480068394908602E483D
:1018C0000068B0FA80F0C0F11F0101EB8102314BDA
:1018D00003EB820042685268426000F108024368EC
:1018E000934202D14268526842604268D2681C4BFF
:1018F0001A6000BF704770B5054601F02DF915B9A3
:101900001748006800E028460446201DFFF734F819
:1019100078B9E06A00EB80001E4951F8200040B918
:1019200094F82C100120884013490968814312481B
:101930000160A06A18B104F11800FFF71DF8211D1D
:101940000E48FEF7F3FF01F016F91648006828B1BB
:1019500001F002F9FFF7C4FC01F00DF9004823E0A3
:101960003000002054000020BC0300205000002064
:1019700004ED00E04400002048000020E4030020C3
:1019800038000020340000206000002068000020A3
:10199000D003002030030020280000207000002029
:1019A0006C0000204C0000200068844217D1FD48E4
:1019B000006840B14FF08050FB490860BFF34F8F83
:1019C000BFF36F8F0BE0F9480068F9490968884256
:1019D00003D10020F749086001E0FFF74CFF70BD1C
:1019E00010B5014600200A46F04C5369A34201D1CC
:1019F000012300E0002373B1EF4C936AA34201D1AD
:101A0000012300E0002333B9936A0BB9012300E0FE
:101A1000002303B1012010BD70B505462C4674B3F8
:101A2000E448006884422AD001F096F82046FFF787
:101A3000D7FF10B3201DFEF79FFF94F82C10012054
:101A40008840DE4909680843DC490860E16A01EB27
:101A50008101DB4A02EB8100211DFEF767FFD549BA
:101A6000E06A0968C96A884207D34FF08050CE49BE
:101A70000860BFF34F8FBFF36F8F01F07CF870BD2C
:101A80002DE9F04106460027344600BFBF21EFF3A1
:101A9000118081F31188BFF34F8FBFF36F8F00BFA9
:101AA00005462046FFF79CFF20B3C6480068E0B912
:101AB000C049E06A0968C96A884200D30127201D2D
:101AC000FEF75AFF94F82C1001208840BB490968A2
:101AD0000843BA490860E16A01EB8101B84A02EBA8
:101AE0008100211DFEF722FF04E004F11801B24835
:101AF000FEF71CFF00BF85F3118800BF3846BDE824
:101B0000F08170B523E0FFF79EFDAF48006808B98B
:101B1000012000E000200546FFF7CAFCBDB901F036
:101B20001BF8A948C068C468201DFEF725FFA0481F
:101B30000068401E9E490860A4480068401EA349F2
:101B4000086001F018F82046FFF7DFFB00BF9F4850
:101B500000680028D7D170BD00BFFFF7D2FF9848BA
:101B600000680128F9D94FF080508F490860BFF311
:101B70004F8FBFF36F8FF0E71CB5954800210B46E0
:101B80008022CDE9001093A19448FFF779FB044629
:101B9000012C02D100F01BFF0446012C16D100BF1E
:101BA000BF2080F31188BFF34F8FBFF36F8F00BF4B
:101BB0004FF0FF308A49086001207A490860002010
:101BC000884908608849086000F0B0FF1CBD10B566
:101BD00000BFBF2080F31188BFF34F8FBFF36F8F1B
:101BE00000BF00206F49086000F0B5FF10BD7D49BF
:101BF0000868704700217B4A106870476C4800688D
:101C00007047014611B96B48006800E0084602467B
:101C100002F1340070470246002101E0521C491CC9
:101C20001078A528FAD0890888B270472DE9F041CC
:101C300007460C4690461E4617B95E48006800E00D
:101C400038460546256005F134006060E86A206189
:101C5000286BE061686CA060207B032807D1FFF748
:101C6000F2FCA86A08B102202073FFF721FCE86C9F
:101C70006061686DA061052E01D0267303E03846CF
:101C8000FFF733FD2073B8F1000F04D0286BFFF786
:101C9000C2FF208401E000202084BDE8F0812DE90E
:101CA000F04707460C4690460026206848B3204679
:101CB00041684968416000F1080142688A4202D1E6
:101CC0004168496841604168D1F80C9000BF2046E6
:101CD00041684968416000F1080142688A4202D1C6
:101CE0004168496841604168CD6806EBC60007EB72
:101CF0008001434601222846FFF798FF761C4D4598
:101D0000E5D13046BDE8F0872DE9F041054688462B
:101D1000164600240527FFF796FC254800688045F5
:101D20003AD300BF7F1E07EB8702254B03EB8201EE
:101D300004EBC40205EB82000122FFF7B0FF04446C
:101D4000002FEFD104EBC40105EB810002222749EB
:101D50000968FFF7A4FF044404EBC40105EB81000C
:101D6000022223490968FFF79AFF044404EBC401E7
:101D700005EB810004221449FFF791FF044404EBB2
:101D8000C40105EB810003220849FFF788FF0444E2
:101D900016B1154800683060FFF78AFB2046BDE8A1
:101DA000F08100004C00002004ED00E0E40300207E
:101DB0004000002030000020BC030020480000202C
:101DC0003003002068000020D00300203C000020E9
:101DD0006400002049444C4500000000591B0008E5
:101DE0006000002044000020280000203400002073
:101DF0003800002070B505460C46F64801681831D9
:101E00002846FEF79FFD01212046FFF7DEFB70BD4F
:101E100070B506460C46154644F00040ED49096889
:101E20008861EC48016818313046FEF77FFD0121DA
:101E30002846FFF7CAFB70BD70B506460D4614462E
:101E4000E448016818313046FEF770FD0CB14FF0E0
:101E5000FF3521462846FFF7B8FB70BD70B5064632
:101E6000F068C46804F11800FEF786FDDA480068DF
:101E7000A8B9201DFEF780FD94F82C1001208840A1
:101E8000D64909680843D5490860E16A01EB810138
:101E9000D34A02EB8100211DFEF748FD04E004F166
:101EA0001801D048FEF742FDCA49E06A0968C96ACC
:101EB000884204D901250120CB49086000E00025B3
:101EC000284670BD2DE9F04105460F4647F0004019
:101ED0002860EC682846FEF74FFD201DFEF74CFDFC
:101EE00094F82C1001208840BC4909680843BB497C
:101EF0000860E16A01EB8101B94A02EB8100211D12
:101F0000FEF714FDB349E06A0968C96A884204D93A
:101F100001260120B449086000E000263046BDE8F3
:101F2000F081B24909680160B149096841607047B0
:101F300070B504460D4600F00FFEAD4802682868F3
:101F4000401C08B9002619E0A849206809688842A1
:101F500004D06068904201D801260FE06068101A32
:101F60002968884209D228686168511A401A286095
:101F70002046FFF7D6FF002600E0012600F0FBFD1B
:101F8000304670BD0120984908607047014611B184
:101F90000A46906C00E00020704708B10246916448
:101FA00070478C49086870479249096809B901204F
:101FB00005E08949096809B9022000E0002070475E
:101FC00070B505462C46002D4BD08249E06A096861
:101FD000C96A884245D2A06900F0004028B97D480E
:101FE0000068C06AC0F10500A061E16A01EB8101EF
:101FF0007B4A02EB81016069884201D1012000E047
:10200000002050B3201DFEF7B7FC78B9E06A00EB62
:102010008000734951F8200040B994F82C10012039
:1020200088406E49096881436C48016069480068CE
:10203000C06AE06294F82C10012088406749096862
:10204000084366490860E16A01EB8101644A02EBDA
:102050008100211DFEF76AFC03E05E480068C06A4B
:10206000E06270BD70B505462C460026ADB3206D0C
:10207000401E2065E16CE06A88422ED0206D60BB76
:10208000201DFEF779FC78B9E06A00EB8000544926
:1020900051F8200040B994F82C10012088404F4995
:1020A000096881434D480160E06CE062E06AC0F17C
:1020B0000500A06194F82C10012088404749096868
:1020C000084346490860E16A01EB8101444A02EB9A
:1020D0008100211DFEF72AFC0126304670BD70B537
:1020E00005460E463146284602F07EFE284602F09E
:1020F0009FFE044602E020202855641C0F2CFAD3D2
:1021000000202855281970BD7FB50546002028708D
:102110003948006803903849096801EBC10188001B
:1021200000F06BFD0446002C53D00022204603999A
:10213000FFF7EAFD03900020029043E0029800EBD5
:10214000C00004EB8000007B012806D0022806D0E6
:10215000032806D0042808D105E0522607E04226CD
:1021600005E0532603E0442601E0002600BF00BF3F
:10217000029800EBC00004EB800041682846FFF79E
:10218000AEFF0546029800EBC00004EB80008068BB
:10219000029901EBC10104EB8101098CCDE900102A
:1021A000029800EBC00004EB8000324613A10369E3
:1021B000284602F0C1FB284602F03AFE0544029888
:1021C000401C0290DDE902018842B7D3204600F0AE
:1021D00067FD7FBD3000002068000020480000201F
:1021E00030030020BC0300205400002058000020D1
:1021F000440000204C000020400000200925630915
:1022000025750925750925750D0A0000FEB50546D9
:1022100000202870F84800680290F749096801EB2F
:10222000C101880000F0E9FC0446002C48D06A4651
:1022300020460299FFF768FD029064210098B0FBE8
:10224000F1F000900098002837D00020019030E095
:10225000019800EBC00004EB800080690099B0FB9E
:10226000F1F6019800EBC00004EB800041682846BD
:10227000FFF735FF05465EB1019800EBC00004EBA7
:1022800080003346DDA18269284602F055FB09E053
:10229000019800EBC00004EB8000DBA182692846B6
:1022A00002F04AFB284602F0C3FD05440198401C99
:1022B0000190DDE901018842CAD3204600F0F0FC1C
:1022C000FEBDD44909688869D2490968C96AC1F163
:1022D0000501D04A126891617047CE48006830B15C
:1022E000CC49096801F15000096D491C0160C948D9
:1022F0000068704770B506460D4600F02DFCC548D5
:102300000068806D88B90120C249096881F85C00C5
:102310005DB101212846FFF758F94FF08050BE49C2
:102320000860BFF34F8FBFF36F8F00F024FC00F005
:1023300013FCB8480068846D4CB126B10020B54943
:102340000968886503E0601EB24909688865002055
:10235000B049096881F85C0000F00DFC204670BDB2
:102360002DE9F0410746884614461D4600F0F4FB6F
:10237000A848006890F85C00022818D0A5490968B0
:1023800001F15800896DB94301600120A149096834
:1023900081F85C005DB101212846FFF716F94FF086
:1023A00080509D490860BFF34F8FBFF36F8F00F0DF
:1023B000E2FB00F0D1FB1CB196480068806D206004
:1023C0009448006890F85C00012801D1002608E0DC
:1023D0009049096801F15800896D21EA08010160FE
:1023E000012600208B49096881F85C0000F0C3FBDE
:1023F0003046BDE8F0812DE9F04781460D4616468E
:102400001F464FF0010A4C4600F0A6FB0FB1A06D2D
:10241000386094F85C80022084F85C00052E17D2A6
:10242000DFE806F01503070B0D00A06D2843A0653B
:102430000EE0A06D401CA0650AE0A56508E0B8F1BB
:10244000020F01D0A56501E04FF0000A00E000BFD7
:1024500000BFB8F1010F22D1201DFEF78DFA94F8CC
:102460002C10012088406D49096808436B490860B9
:10247000E16A01EB81016A4A02EB8100211DFEF74E
:1024800055FA6449E06A0968C96A884207D94FF079
:10249000805061490860BFF34F8FBFF36F8F00F02A
:1024A0006AFB5046BDE8F0872DE9F84F82460D469D
:1024B00016461F46DDF828B001200090544600BFA4
:1024C000BF21EFF3118081F31188BFF34F8FBFF36A
:1024D0006F8F00BF81460FB1A06D386094F85C80AB
:1024E000022084F85C00052E17D2DFE806F0150301
:1024F000070B0D00A06D2843A0650EE0A06D401CE9
:10250000A0650AE0A56508E0B8F1020F01D0A56555
:1025100001E00020009000E000BF00BFB8F1010F13
:102520002DD140480068A8B9201DFEF725FA94F87F
:102530002C10012088403949096808433749086050
:10254000E16A01EB8101364A02EB8100211DFEF7B1
:10255000EDF904E004F118013348FEF7E7F92D49DD
:10256000E06A0968C96A884209D9BBF1000F03D043
:102570000120CBF8000002E001202C49086000BFD8
:1025800089F3118800BF0098BDE8F88F2DE9F0416C
:1025900005460E462C4600BFBF21EFF3118081F3A4
:1025A0001188BFF34F8FBFF36F8F00BF074694F8BA
:1025B0005C80022084F85C00A06D401CA065B8F12E
:1025C000010F47D117480068A8B9201DFEF7D4F9BC
:1025D00094F82C10012088401049096808430F49DD
:1025E0000860E16A01EB81010D4A02EB8100211DC7
:1025F000FEF79CF921E01BE0400000200925750949
:1026000009257525250D0A0009257509093C31257F
:10261000250D0A003000002004ED00E048000020F5
:102620003003002068000020BC030020540000207C
:1026300004F118011648FEF779F91649E06A0968AD
:10264000C96A884206D916B10120306002E0012033
:102650001149086000BF87F3118800BFBDE8F08111
:1026600070B5054615B90B48006800E028460646D7
:1026700000F072FA96F85C00022804D1002086F877
:102680005C00012400E0002400F075FA204670BDD3
:10269000BC03002030000020540000202DE9F04150
:1026A00004460D4616461F464FF00008656024613B
:1026B000B5420CD8F01BA169884202D34FF0010843
:1026C00011E0211DF8480068FEF73CF90BE0BE421E
:1026D00004D2BD4202D34FF0010804E0211DF348AB
:1026E0000068FEF72FF94046BDE8F0812DE9FE4372
:1026F00005460C4616461F46DDF828804FF00009B7
:10270000EB48006810B3009401960295062C15DA88
:10271000FFF74AFC022808D1002342466946E448F4
:102720000068FEF737FA814610E000231A46694632
:10273000DF480068FEF72EFA814607E000233A469C
:102740006946DB480068FEF7CEFA81464846BDE898
:10275000FE832DE9F84326E0D4480068C068056888
:10276000D2480068C068C468201DFEF705F92046FD
:10277000616A8847E069012815D1A0694619AE420F
:1027800007D966602461211DC8480068FEF7DAF8A1
:1027900009E0002003462A46014600902046FFF744
:1027A000A5FF804600BFC1480068006808B9012045
:1027B00000E000200028CFD0BC480768BA48006875
:1027C000BA490860B8480760BDE8F88370B50446A8
:1027D000FFF70DFA0546B7480068854204D2FFF7B7
:1027E000B8FF0120206001E000202060B1480560B2
:1027F000284670BD70B586B04DE0039800284ADBCE
:10280000059C606908B9012000E0002010B9201D76
:10281000FEF7B2F802A8FFF7D9FF054603980A2889
:1028200037D2DFE800F009050725273206082628F9
:1028300000BF00BF00BF00BF0498A2698118034613
:102840002A462046FFF72AFF88B12046616A88475A
:10285000E06901280BD1002000900498A16942187A
:10286000002319462046FFF741FF064600BF11E04E
:1028700000BF0FE000BF0498A061A06941192B467A
:102880002A462046FFF70AFF04E0204600F008FA37
:1028900000E000BF00BF00231A4603A98448006877
:1028A000FEF7C4FA0028A8D106B070BDF8B50546F9
:1028B0000E467E480068C068C468201DFEF75CF8BC
:1028C000E069012811D1A06941192B463246204602
:1028D000FFF7E4FE48B1002003462A460146009077
:1028E0002046FFF703FF074600BF2046616A88477E
:1028F000F8BDF8B505460C46FEF7A5FE6846FFF79D
:1029000065FF0646009820BB44B9B54206D8FEF7DD
:10291000CFFD31462846FFF7C9FF1CE03CB16248B5
:102920000068006808B9012000E000200446A91BE7
:1029300022465F480068FEF7C2FBFEF7B9FD50B9BA
:102940004FF080505C490860BFF34F8FBFF36F8F2B
:1029500001E0FEF7ADFDF8BD0146544A1268126869
:102960000AB9012200E000220A600A6822B94F4A2F
:102970001268D268106800E00020704708B500BFF8
:102980006846FFF7E9FF044620460099FFF7B1FFCC
:10299000FFF730FFF4E710B500F0DEF844480068B8
:1029A00090B94648FDF7B2FF4548FDF7AFFF4348F1
:1029B0003E49086042483C49086000220C210A2038
:1029C000FEF740F83A49086000F0D5F810BD1CB594
:1029D0000024FFF7E0FF3648006850B13948012174
:1029E00000238022CDE9001037A13948FEF748FCCA
:1029F000044620461CBD2DE9F04705460E46174605
:102A00009846DDE908945CB1FFF7C5FF2560A66133
:102A1000E761C4F82080C4F82490201DFDF783FFEF
:102A2000BDE8F0872DE9FC4705460E461746984657
:102A3000DDF828902C2000F0E0F804463CB1434635
:102A40003A4631462846CDE90094FFF7D4FF2046A8
:102A5000BDE8FC871B480068704701460A4690693C
:102A6000704701460A465068704701460A4610689A
:102A7000704770B50446264600F06EF8706908B9D4
:102A8000012000E0002080F0010500F074F82846E5
:102A900070BD70B50446264600F05EF8356A00F059
:102AA0006AF8284670BD00007800002074000020FD
:102AB0007C0000208400002004ED00E0F8030020EA
:102AC0000C04002080000020546D722053766300B7
:102AD0007D29000870B504460D46264600F03CF8F6
:102AE000356200F048F870BD00BFBF2080F3118848
:102AF000BFF34F8FBFF36F8F00BF00BFFEE7001F14
:102B00004FF080730360001F21F001030360001F7A
:102B10002C4B036014380260203870474FF6FF10CA
:102B20004FF0E021486107200861704710B5264842
:102B3000006840F47F00244908600846006840F0BF
:102B40007F400860FFF7EAFF002020490860FDF79A
:102B500083FB002010BD704700BFBF2080F31188A9
:102B6000BFF34F8FBFF36F8F00BF18480068401C42
:102B700016490860704715480068401E13490860F0
:102B80000846006820B9002080F3118800BF00BF0C
:102B9000704710B500BFBF2080F31188BFF34F8F7F
:102BA000BFF36F8F00BFFEF70CFC20B14FF08050D9
:102BB00005491C39086000BF002080F3118800BF60
:102BC00010BD0000E92A000820ED00E08800002088
:102BD000434A22F00700434A10600022414B5A60EA
:102BE00043F6F832404B5A6000221A60014643F621
:102BF000F8324A601A460A6070472DE9F0410446EF
:102C00004FF00008FEF71FFD3848006820B9FFF7B5
:102C1000DFFF01203549086044B1083404F00700A3
:102C200020B104F00700C0F108000444002C32D0A9
:102C300043F6F83084422ED22A4F3846056801E028
:102C40002F462D686868A04202D228680028F7D174
:102C5000254885421FD0386800F108082868386088
:102C60006868001B102810D92E196868001B706056
:102C70006C6071681B4800E00068026852688A4214
:102C8000FAD302683260066000BF194968680968B3
:102C9000081A17490860FEF70BFC4046BDE8F081B2
:102CA00070B506463546B6B1083D2C46FEF7CBFC5E
:102CB00061680C4800E00068026852688A42FAD3F2
:102CC0000268226004600A4960680968084408498B
:102CD0000860FEF7EDFB70BD05480068704770475F
:102CE000280400208C00002094000020A000002078
:102CF0009C00002031490143314A1160704770B592
:102D0000002100230F22C47804B32D4C246804F45E
:102D1000E064C4F5E064210AC1F10403CA404478C8
:102D200004FA03F18478144021430901254C067804
:102D3000A155047804F01F050124AC4005786D11FD
:102D4000AD0005F1E025C5F8004109E0047804F084
:102D50001F050124AC401C4D0678761145F826402D
:102D600070BD1A4A0A400243154B1B1F1A60704778
:102D700039B1134A121D12680243114B1B1D1A6010
:102D800006E00F4A121D126882430D4B1B1D1A608C
:102D90007047042808D14FF0E021096941F004018F
:102DA0004FF0E022116107E04FF0E021096921F0C6
:102DB00004014FF0E0221161704700000000FA05A5
:102DC0000CED00E000E400E080E100E080FFFF1F88
:102DD00010B50446CC48844208D10121042000F0FB
:102DE0002DFB0021042000F029FB46E0C748844267
:102DF00008D10121082000F021FB0021082000F06B
:102E00001DFB3AE0C248844208D10121102000F0A5
:102E100015FB0021102000F011FB2EE0BD4884427C
:102E200008D10121202000F009FB0021202000F022
:102E300005FB22E0B848844208D10121402000F07F
:102E4000FDFA0021402000F0F9FA16E0B348844270
:102E500008D10121802000F0F1FA0021802000F04B
:102E6000EDFA0AE0AE48844207D10121801500F056
:102E7000E5FA0021A01500F0E1FA10BD10B501211E
:102E8000084600F0DBFA0021012000F0D7FA10BD5F
:102E90002DE9F041024600250026002000230024F1
:102EA000002791F803C00CF00F0591F803C00CF057
:102EB000100CBCF1000F03D091F802C04CEA0505DC
:102EC00091F800C0BCF1000F31D0146800202BE055
:102ED0004FF0010C0CFA00F3B1F800C00CEA030645
:102EE0009E4220D183004FF00F0C0CFA03F7BC4335
:102EF00005FA03FC4CEA040491F803C0BCF1280F66
:102F000006D14FF0010C0CFA00FCC2F814C00AE024
:102F100091F803C0BCF1480F05D14FF0010C0CFA39
:102F200000FCC2F810C0401C0828D1D31460B1F8CE
:102F300000C0BCF1FF0F34DD546800202EE000F12A
:102F4000080C4FF0010808FA0CF3B1F800C00CEAC5
:102F500003069E4221D183004FF00F0C0CFA03F7B9
:102F6000BC4305FA03FC4CEA040491F803C0BCF12D
:102F7000280F05D100F1080C08FA0CF8C2F81480EB
:102F800091F803C0BCF1480F07D100F1080C4FF0D5
:102F9000010808FA0CF8C2F81080401C0828CED3AB
:102FA0005460BDE8F0814FF6FF710180022181700D
:102FB0000421C17070470246002093680B400BB19A
:102FC000012000E0002070470146886880B2704709
:102FD00002460020D3680B400BB1012000E0002026
:102FE00070470146C86880B270470161704741610F
:102FF00070470AB1016100E041617047C1607047EC
:103000004FF480320A438261816182618269826900
:10301000704702460020434B18684FF680731840F3
:1030200040EA021008433F4B186070473E49C861B0
:103030007047F0B50A46002300240021002500F067
:103040000046B6F1004F02D1364EF16901E0354E2F
:103050007168C0F3034583B200F44016B6F5401F13
:1030600008D121F070612F4E766826F070662D4FE2
:103070007E6012E000F48016B6F5801F06D10326AC
:1030800006FA05F4A14341F0706106E0460D3601F1
:1030900003FA06F6B14341F0706122B1460D3601E4
:1030A00003FA06F6314300F00046B6F1004F02D1B4
:1030B0001C4EF16101E01B4E7160F0BD30B5002285
:1030C0008B071C0F0F2303FA04F2164B08338C10E6
:1030D00053F824309343134C08348D1044F82530B2
:1030E00023468C1053F824308C07240F00FA04F484
:1030F00023430C4C08348D1044F8253030BD0A4968
:10310000DC3108607047000000080140000C0140FD
:10311000001001400014014000180140001C014053
:10312000002001400000014000002042DF4800680C
:1031300040F00100DD49086008464068DC4908406D
:10314000DA49486008460068DA490840D74908600B
:103150000846006820F4802008600846406820F493
:10316000FE0048604FF41F0088607047CF4909682F
:1031700021F48031CD4A11601146096821F4802183
:103180001160B0F5803F03D0B0F5802F0ED106E07E
:10319000C649096841F48031C44A116007E0C34957
:1031A000096841F4A021C14A116000E000BF00BFDE
:1031B000704710B501460022002300204A11012A61
:1031C00002D1BA4C236806E0022A02D1B74C236A26
:1031D00001E0B64C636A01F01F02012494401C40D8
:1031E0000CB1012000E0002010BD38B50020009097
:1031F0000024002500BF3120FFF7DBFF05460098C3
:10320000401C00900098B0F5A06F01D0002DF2D0C6
:103210003120FFF7CEFF08B1012400E00024204652
:1032200038BD01460020A14A106820F0F80040EAAD
:10323000C10010607047A049086070470246002036
:103240009A4B586820F47C1042EA01031843974BCC
:103250005860704798490866704701460020934AB5
:10326000506820F003000843506070478F48406862
:1032700000F00C007047014600208C4A506820F096
:10328000F00008435060704701460020874A5068AC
:1032900020F4E06008435060704701460020834AF4
:1032A000506820F4605040EAC1005060704729B176
:1032B0007E4A527A02437D4B5A7204E07B4A527A2C
:1032C00082437A4B5A7270477B49D8310860704705
:1032D00001460020754A506820F440400843506081
:1032E00070470021714A20321170704A82F8201014
:1032F000012802D004280AD104E001216B4A2032BF
:10330000117005E00521694A2032117000E000BF0C
:1033100000BF70476949086070476449096A014302
:10332000624A11627047654944390860704730B598
:1033300000210022002400235C4D6D6805F00C0183
:1033400021B1042905D0082923D105E05C4D056091
:1033500022E05B4D05601FE0544D6D6805F470126E
:10336000524D6D6805F48034022505EB92421CB97C
:10337000544D554305600BE04C4D6D6805F4003528
:103380001DB1504D5543056002E04D4D554305605C
:1033900002E04B4D056000BF00BF444D6D6805F075
:1033A000F0010909484D6B5C0568DD4045603F4D03
:1033B0006D6805F4E061090A434D6B5C4568DD40CA
:1033C00085603A4D6D6805F46051C90A3E4D6B5CED
:1033D0004568DD40C560354D6D6805F44041890B99
:1033E0003A4D6B5CC568B5FBF3F5056130BD29B19D
:1033F0002E4A526902432D4B5A6104E02B4A52690E
:1034000082432A4B5A61704729B1284A9269024384
:10341000264B9A6104E0254A92698243234B9A61C4
:10342000704729B1214AD2690243204BDA6104E096
:103430001E4AD26982431D4BDA61704729B11B4A8B
:10344000D2680243194BDA6004E0184AD26882431A
:10345000164BDA60704729B1144A12690243134BC4
:103460001A6104E0114A12698243104B1A617047D5
:1034700012494039086070470F49C86470470B49CA
:10348000C87170470948406A40F080700749486237
:10349000704701460020054A92680A400AB101209F
:1034A00000E0002070470149887270470010024018
:1034B0000000FFF8FFFFF6FE000042428004424297
:1034C00000127A0000093D00A4000020B400002092
:1034D00010B50446FE48844208D10121C014FFF70C
:1034E000ADFF0021E014FFF7A9FFC4E0B4F1804F65
:1034F00008D101210846FFF7AEFF00210120FFF7A8
:10350000AAFFB8E0F348844208D101210220FFF766
:10351000A2FF00210220FFF79EFFACE0EE488442AC
:1035200008D101210420FFF796FF00210420FFF7B6
:1035300092FFA0E0E948844208D101210820FFF76A
:103540008AFF00210820FFF786FF94E0E4488442C8
:1035500008D101211020FFF77EFF00211020FFF786
:103560007AFF88E0DF48844208D101212020FFF75C
:1035700072FF00212020FFF76EFF7CE0DA488442D2
:1035800008D101214014FFF759FF00216014FFF713
:1035900055FF70E0D548844209D10121C804FFF7E6
:1035A0004DFF00214FF40020FFF748FF63E0D048B3
:1035B000844209D101210805FFF740FF00214FF4A3
:1035C0008010FFF73BFF56E0CA48844209D1012131
:1035D0004805FFF733FF00214FF40010FFF72EFFDF
:1035E00049E0C548844208D101214020FFF733FF5C
:1035F00000214020FFF72FFF3DE0C048844208D162
:1036000001218020FFF727FF00218020FFF723FF03
:1036100031E0BB48844208D101218015FFF71BFF30
:103620000021A015FFF717FF25E0B648844209D115
:1036300001210804FFF702FF00214FF48030FFF75B
:10364000FDFE18E0B048844209D101214804FFF78B
:10365000F5FE00214FF40030FFF7F0FE0BE0AB4821
:10366000844208D101218804FFF7E8FE00214FF4CD
:103670008020FFF7E3FE10BD00220288944B9842A1
:103680000ED0994B98420BD0B0F1804F08D0914B9F
:10369000984205D0904B984202D0904B984204D16A
:1036A0004FF68F731A404B881A438D4B984207D0C0
:1036B0008C4B984204D04FF6FF431A40CB881A43F4
:1036C00002808B8883850B880385814B98420BD0C1
:1036D000854B984208D08B4B984205D08A4B984234
:1036E00002D08A4B984201D10B7A03860123838250
:1036F000704770B5002400220023058C4FF6FE763B
:1037000035400584028C8388048B4FF68F752C40DE
:10371000B51E2C400D882C43751E2A400D892A4366
:103720004D882A436A4DA8420BD06F4DA84208D05D
:10373000744DA84205D0744DA84202D0734DA842E2
:1037400013D14FF6F7752A404D892A434FF6FB7582
:103750002A408D882A434FF6FF652B404FF6FF55D0
:103760002B408D892B43CD892B4383800483CD88C7
:103770008586028470BD70B5002400220023058C6C
:103780004FF6EF7635400584028C8388048B48F62B
:10379000FF752C404FF6FF452C400D884FF6FF7605
:1037A00006EA05252C434FF6DF752A400D8906EA07
:1037B00005152A434D8806EA05152A43444DA842BB
:1037C00002D0494DA8421DD14FF67F752A404D8940
:1037D0004FF6FF7606EA05152A434FF6BF752A40D5
:1037E0008D8806EA05152A434FF6FF352B404FF228
:1037F000FF752B408D8906EA85052B43CD8906EAA6
:1038000085052B4383800483CD880587028470BDA2
:1038100070B5002400220023058C4FF6FF6635406A
:103820000584028C8388848B4FF68F752C404FF66D
:10383000FC752C400D882C434FF6FF552A400D890E
:103840004FF6FF7606EA05252A434D8806EA052548
:103850002A431F4DA84202D0234DA8421DD14FF24A
:10386000FF752A404D894FF6FF7606EA05252A4363
:103870004FF6FF352A408D8806EA05252A434EF685
:10388000FF752B404DF6FF752B408D8906EA051517
:103890002B43CD8906EA05152B4383808483CD888D
:1038A0008587028470BD70B5002200230024058C3A
:1038B0004EF6FF7635400584038C8488828B48F66B
:1038C000FF752A404FF6FF452A400D8820E0000092
:1038D000002C01400004004000080040000C0040A3
:1038E000001000400014004000340140004C014032
:1038F000005001400054014000180040001C0040EE
:1039000000200040004001400044014000480140C8
:103910004FF6FF7606EA05252A434DF6FF752B4044
:103920000D8906EA05352B434D8806EA05352B43FC
:10393000FA4DA84202D0FA4DA84208D14BF6FF75C5
:103940002C408D894FF6FF7606EA85152C4384803E
:103950008283CD88A0F84050038470BD828B4FF2E3
:10396000FF331A408283828B4FF6FF7303EA0123F1
:103970001A4382837047F0B50C4615460022002199
:103980000026078C4EF6FF7C07EA0C070784828B23
:10399000018C4FF6FF7707EA043640F6FF473A40BE
:1039A0004FF6FF7707EA05273A434FF6FF7707EA16
:1039B00003373A43D94FB8420ED0D94FB8420BD053
:1039C000B0F1804F08D0D74FB84205D0D64FB8429B
:1039D00002D0D64FB84206D14DF6FF77394046F4B3
:1039E0008057394305E047F6FF57394044F4805784
:1039F000394382830184F0BD828B4FF6F3731A4002
:103A00008283828B0A4382837047F0B50C46154649
:103A1000002200210026078C4FF6FF6C07EA0C07F6
:103A20000784828B018C4FF6FF7707EA04264FF656
:103A30000C773A404FF6FF7707EA03172F433A43D4
:103A4000B64FB8420ED0B64FB8420BD0B0F1804F4F
:103A500008D0B44FB84205D0B34FB84202D0B34FEC
:103A6000B84206D14FF6FF57394046F480773943C4
:103A700005E04FF2FF57394044F4807739438283A1
:103A80000184F0BD028B4FF2FF331A400283028B98
:103A90004FF6FF7303EA01231A4302837047F0B520
:103AA0000C461546002200210026078C4FF6EF7CBD
:103AB00007EA0C070784028B018C4FF6FF7707EAB1
:103AC000041640F6FF473A404FF6FF7707EA033700
:103AD0003A434FF6FF7707EA05273A438F4FB8423C
:103AE0000ED08F4FB8420BD0B0F1804F08D08D4F21
:103AF000B84205D08C4FB84202D08C4FB84206D1A4
:103B00004FF6DF77394046F01007394305E04FF6AE
:103B10005F77394044F01007394302830184F0BDD8
:103B2000028B4FF6F3731A400283028B0A4302831F
:103B30007047F0B50C46154600220021068C4FF662
:103B4000FE773E400684028B018C4FF60C763240A5
:103B50007E1C06EA03162E433243704EB0420ED04E
:103B60006F4EB0420BD0B0F1804F08D06D4EB042D6
:103B700005D06D4EB04202D06C4EB04206D14FF629
:103B8000FD76314044F00106314305E04FF6F5760D
:103B9000314044F00106314302830184F0BD70B529
:103BA00005460C465D4885420ED05D4885420BD0E7
:103BB000B5F1804F08D05B48854205D05A48854210
:103BC00002D05A48854200D100E000BF208850B999
:103BD0002389A28861882846FFF7ABFFE188284641
:103BE000FFF79EFF25E0208804280AD12389A288B8
:103BF00061882846FFF753FFE1882846FFF742FF18
:103C000017E0208808280AD12389A28861882846DD
:103C1000FFF7FBFEE1882846FFF7EEFE09E0238967
:103C2000A28861882846FFF7A6FEE1882846FFF7AC
:103C300095FE70BD2DE9F04105460C460026012792
:103C4000608808B9022600E00026A088012801D17A
:103C5000022700E001272088A0B92389A288618873
:103C60002846FFF766FFE1882846FFF759FF2389BA
:103C70003A4631462846FFF712FFE1882846FFF70B
:103C800001FF13E02389A28861882846FFF707FF18
:103C9000E1882846FFF7F6FE23893A463146284652
:103CA000FFF747FFE1882846FFF73AFFBDE8F081BC
:103CB0000A884B881A438B881A43CB881A430B898E
:103CC0001A434B891A438B891A43A0F84420704742
:103CD0004FF6FF71818000210180C1804180017217
:103CE00070470021018041808180C1800181418134
:103CF0008181C18170470021018041800121818043
:103D00000021C180018170470021018041808180B4
:103D1000C18001814181818170470000002C0140F8
:103D2000003401400004004000080040000C004046
:103D300021B1028842F00102028004E002884FF6BD
:103D4000FE731A400280704731B1B0F8442042F44B
:103D50000042A0F8442005E0B0F84420C2F30E026F
:103D6000A0F8442070471AB183890B43838102E095
:103D700083898B43838170478182704741EA0203C4
:103D8000A0F8483070471AB183890B43838102E061
:103D900083898B438381704701894FF6F872114004
:103DA000018170470A46002101894FF68F7319403F
:103DB00011430181704730B504460D46294620461F
:103DC000FFF7F0FF208940F00700208130BD2DE98A
:103DD000F04104460D4616461F46602D06D13B466F
:103DE000012231462046FFF75AFE05E03B460122FC
:103DF00031462046FFF79DFE29462046FFF7D2FFB9
:103E0000208940F007002081BDE8F08130B50C46E4
:103E100000210189C9B24FF6FF7505EA0325154354
:103E200025432943018130BD2DE9F04105460E4669
:103E300017469846002443463A4631462846FFF73F
:103E4000E5FF2C894FF6F870044044F007044FF664
:103E50008F70044044F070042C81BDE8F081F0B50F
:103E600004460D4616461F463B4632462946204626
:103E7000FFF7CCFF208940F480402081F0BD018510
:103E8000828270470A46002101884FF68F731940DD
:103E9000114301807047F0B50C4615461E460021BF
:103EA000002200230189028B038C4FF6F8773940FA
:103EB00021434FF6FC473A4040F201173A434FF690
:103EC000DD773B404FF6FF7707EA06172F433B436A
:103ED000018102830384F0BD0A460021018B4FF665
:103EE0008F7319401143018370470A460021018BEB
:103EF00048F6FF7319404FF6FF7303EA0223194394
:103F0000018370470A460021818B4FF68F73194059
:103F10001143818370470A460021818B48F6FF7365
:103F200019404FF6FF7303EA022319438183704758
:103F300021B1028842F08002028004E002884FF63C
:103F40007F731A400280704721B1828842F00402D8
:103F5000828004E082884FF6FB731A4082807047AB
:103F600021B1828842F00802828004E082884FF604
:103F7000F7731A408280704721B1828842F00102B3
:103F8000828004E082884FF6FE731A408280704778
:103F90000A460021018B4FF6F77319401143018344
:103FA00070470A460021018B4FF2FF7319404FF60C
:103FB000FF7303EA02231943018370470A46002175
:103FC000818B4FF6F77319401143818370470A467E
:103FD0000021818B4FF2FF7319404FF6FF7303EA04
:103FE00002231943818370470A460021018B4FF653
:103FF000FB7319401143018370470A460021018B6E
:104000004FF6FF3319404FF6FF7303EA02231943BB
:10401000018370470A460021818B4FF6FB731940DC
:104020001143818370470A460021818B4FF6FF338D
:1040300019404FF6FF7303EA022319438183704747
:104040000A460021018B4FF67F731940114301830B
:1040500070470A460021018BC1F30E014FF6FF7332
:1040600003EA02231943018370470A460021818B2A
:104070004FF67F7319401143818370470A46002130
:10408000818BC1F30E014FF6FF7303EA022319433C
:10409000818370470A460021018C4FF6FD73194059
:1040A0001143018470470A460021018C4FF6F773D3
:1040B00019401143018470470A460021018C4FF6D4
:1040C000DF7319404FF6FF7303EA021319430184AB
:1040D00070470A460021018C4FF67F7319404FF656
:1040E000FF7303EA02131943018470470A46002153
:1040F000018C4FF6FF5319404FF6FF7303EA02237A
:104100001943018470470A460021018C4FF2FF7366
:1041100019404FF6FF7303EA0223194301847047E5
:104120000A460021018C4DF6FF7319404FF6FF73CC
:1041300003EA023319430184704730B50023012498
:104140008C40A3B2048C9C430484048C02FA01F5D5
:10415000ADB22C43048430BD30B5002304248C4020
:10416000A3B2048C9C430484048C02FA01F5ADB222
:104170002C43048430BD70B503460020002418464B
:10418000183001258D40ACB21D8CA5431D8409B1AA
:10419000082909D100EB6100056825F0700505606C
:1041A0000568154305600EE00D1FC5F34E05284454
:1041B000056825F4E045056005684FF6FF7606EAD8
:1041C00002263543056070BD21B1028842F002022B
:1041D000028004E002884FF6FD731A4002807047A7
:1041E00021B1028842F00402028004E002884FF606
:1041F000FB731A400280704721B1828842F080022E
:10420000828004E082884FF67F731A408280704774
:1042100002884FF6F7731A40028002880A43028030
:10422000704782884FF68F731A40828082880A43D3
:104230008280704702894FF6F8731A400281028922
:104240000A430281704702894FF67F731A40028148
:1042500002890A43028170478184704781857047D3
:10426000818670470187704781877047A0F84010AA
:10427000704702884FF6FF431A40028002880A43C3
:10428000028070470146888E70470146088F70474C
:104290000146888F70470146B1F8400070470146DB
:1042A000888C70470146088D704702460020138AAB
:1042B0000B400BB1012000E000207047CA4302828E
:1042C000704730B50246002000230024158A05EA15
:1042D0000103958905EA010413B10CB1012000E046
:1042E000002030BDCA4302827047000010B504466A
:1042F000FB48844209D101218803FFF79FF8002180
:104300004FF48040FFF79AF832E0F648844209D132
:1043100001214804FFF79FF800214FF40030FFF718
:104320009AF825E0F048844209D101218804FFF77A
:1043300092F800214FF48020FFF78DF818E0EB4849
:10434000844209D10121C804FFF785F800214FF408
:104350000020FFF780F80BE0E548844208D10121F6
:104360000805FFF778F800214FF48010FFF773F885
:1043700010BD2DE9F04786B005460E460024A24642
:1043800000BFA1460027B08900B100BF2F462C8A8C
:104390004CF6FF700440F08804432C82AC894EF642
:1043A000F3100440B08831890843718908430443FD
:1043B000AC81AC8A4FF6FF400440B0890443AC8224
:1043C00001A8FEF7B4FFC648874202D1DDF810A06D
:1043D00001E0DDF80CA0A88900F4004040B10AEB30
:1043E000CA0000EB0A1031684900B0FBF1F807E0A1
:1043F0000AEBCA0000EB0A1031688900B0FBF1F843
:104400006420B8FBF0F004012009642101FB10894D
:10441000A88900F4004040B1322000EBC900B0FB95
:10442000F1F000F00700044308E0322000EB09102F
:104430006421B0FBF1F000F00F0004432C8106B0C2
:10444000BDE8F0874FF41651016000218180C180E2
:1044500001810C21418100218181704710B5024604
:104460000020108A4FF2FF0318400B884C8823432A
:104470008C882343CC8823431843108210BD00212D
:10448000018041808180C180704721B1828942F4DE
:104490000052828104E082894DF6FF731A408281C6
:1044A0007047F0B50346002400260025002040F6A2
:1044B0006A17B94200D100BF1846C1F3421401F097
:1044C0001F06012707FA06F5012C01D10C3004E084
:1044D000022C01D1103000E014301AB107682F43CC
:1044E000076002E00768AF430760F0BD1AB1838A36
:1044F0000B43838202E0838A8B4383827047028A64
:104500004FF6F0731A400282028A0A430282704711
:1045100082894FF2FF731A40828182890A43828125
:10452000704721B1828942F00202828104E08289CF
:104530004FF6FD731A4082817047028A4FF6DF738F
:104540001A400282028A0A430282704721B1028A1B
:1045500042F48042028204E0028A4BF6FF731A4062
:1045600002827047C1F30802828070470146888842
:10457000C0F308007047818941F0010181817047D3
:10458000028BD2B20283028B42EA0122028370477D
:10459000028B02F47F420283028B0A43028370473C
:1045A00021B1828A42F02002828204E0828A4FF6A0
:1045B000DF731A408282704721B1828A42F0100272
:1045C000828204E0828A4FF6EF731A40828270473B
:1045D00021B1828A42F00802828204E0828A4FF688
:1045E000F7731A408282704721B1828942F40042F7
:1045F000828103E08289C2F30E028281704721B179
:10460000828A42F40062828204E0828A4FF2FF735F
:104610001A4082827047828A4FF6FB731A40828268
:10462000828A0A438282704721B1828A42F0020262
:10463000828204E0828A4FF6FD731A4082827047BC
:1046400002460020B1F5007F00D100BF13880B4067
:104650000BB1012000E00020704701F40072B2F5B8
:10466000007F00D100BFCA430280704770B5024688
:10467000002400230025002040F66A16B14200D134
:1046800000BFC1F3421501F01F03012606FA03F330
:10469000012D02D19689334006E0022D02D1168AFF
:1046A000334001E0968A33400C12012606FA04F4E6
:1046B0001688344013B10CB1012000E0002070BD19
:1046C00010B50022002340F66A14A14200D100BFB9
:1046D0000A1201249440A3B2DC43048010BD000000
:1046E000003801400044004000480040004C0040B9
:1046F000005000400948804709480047FEE7FEE7B0
:10470000FEE7FEE7FEE7FEE7FEE7FEE7FEE7FEE781
:1047100004480549054A064B704700001348000845
:10472000ED000008804000208046002080420020EC
:10473000804200200CB50020019000906C48006879
:1047400040F480306A49086000BF6948006800F49E
:10475000003000900198401C0190009818B9019811
:10476000B0F5A06FF1D16248006800F4003010B1DC
:104770000120009001E0002000900098012843D122
:104780005C48006840F010005A490860084600681C
:1047900020F0030008600846006840F0020008604E
:1047A0005348406852494860084640684860084697
:1047B000406840F4806048600846406820F47C10FF
:1047C00048600846406840F4E810486008460068C1
:1047D00040F08070086000BF4548006800F000703D
:1047E0000028F9D04248406820F003004049486062
:1047F0000846406840F00200486000BF3C484068FE
:1048000000F00C000828F9D10CBD10B5FFF792FF9D
:1048100010BD10B53648006840F00100344908600A
:1048200008464068344908403149486008460068F5
:10483000324908402E4908600846006820F480206C
:1048400008600846406820F4FE0048604FF41F00EE
:104850008860FFF7DAFF4FF000602949086010BD5B
:1048600010B5002100200022214B5B6803F00C01F1
:1048700021B1042906D0082928D107E0214B224C78
:10488000236027E01F4B204C236023E0184B5B681C
:1048900003F47010164B5B6803F48032022303EBC1
:1048A000904022B9194B4343174C23600DE0104B45
:1048B0005B6803F4003323B1144B4343124C236071
:1048C00003E0104B4343104C236003E00D4B0E4CB0
:1048D000236000BF00BF064B5B68C3F303130C4C9F
:1048E000E15C094B1B68CB40074C236010BD000006
:1048F00000100240002002400000FFF8FFFFF6FE1B
:1049000008ED00E000127A00B800002000093D0028
:10491000BC0000201CB50C46064B7B446946009049
:10492000204600F066FB04460020694600F074FB58
:1049300020461CBDFB0600000FB41CB5084B06AAA0
:104940007B4469460090059800F053FB0446002024
:10495000694600F061FB20461CBC5DF814FB0000BA
:10496000D506000070B5044685690068C10601D50A
:10497000302600E02026C00707D070BDD4E9012111
:1049800030469047206A401C20626D1EF6D570BDEF
:1049900070B5044685690078C00707D170BDD4E9B9
:1049A000012120209047206A401C20626D1EF6D510
:1049B00070BD09684A0501D540B27047C905FCD5EC
:1049C00000B2704709684A0501D5C0B27047C905F1
:1049D000FCD580B2704770B50C460546012A05D05B
:1049E0002878800600D5EA69002302E0012305E06B
:1049F0005B1C934202D2E05C0028F9D1A869E6185A
:104A0000C01AA861286A184428622846FFF7AAFF3E
:104A100004E0D5E9012114F8010B9047B442F8D322
:104A20002846FFF7B5FF70BD2DE9F041064600248A
:104A300010687529314616A510D0FFF7BAFF002877
:104A400002DA404213A507E031688A0701D512A5B2
:104A500002E0490704D511A5012401E0FFF7B2FFE8
:104A600000210A2206F1240709E0B0FBF2FCB0FBAA
:104A7000F2F302FB1C00303078541846491C002821
:104A8000F3D123462A463046BDE8F04100F03FBA54
:104A9000000000002D0000002B000000200000009E
:104AA0002DE9FF5F15468A460446DFF8AC80F844DE
:104AB0000027D8E900103E46CDE9001010E03AF892
:104AC00016106A4602A800F017FB411C07D0217897
:104AD000890603D5E269391891420DD80744761C3E
:104AE0002078800602D5E069B84205DDAE42E6DBFB
:104AF0003AF816000028E2D1A069C01BA061204648
:104B0000FFF730FFD8E90010CDE90010002017E0D2
:104B10003AF818106A4602A800F0EEFAB0F1FF3F2A
:104B200081460BD000250DF1080B05E0D4E90121E9
:104B30001BF8050090476D1C4D45F7D308F10100A7
:104B4000B0428046E4DB206A384420622046FFF70A
:104B50001FFFBDE8FF9F0000B216000030B4002127
:104B600000F1240408E002F00705D208303542EADB
:104B70004372DB086554491C52EA0305F3D104680B
:104B8000002310A2250707D5A40600D421B1C469CB
:104B900001230DA2641EC46130BC00F0B8B910B589
:104BA000044621461068FFF70DFF02462046BDE887
:104BB00010400023D2E7D21D22F00701D1E90023E3
:104BC000CCE700000000000030000000F0B40D460B
:104BD0000188090502D5214C7C4402E01F4C7C442D
:104BE0000E34002100F1240608E002F00F0712093C
:104BF000E75D42EA03721B097754491C52EA030736
:104C0000F3D102780023120704D5702D06D009B124
:104C1000022311342246F0BC00F079B9012310348C
:104C2000F8E770B504460D4621461068FFF7CAFE46
:104C3000024629462046BDE870400023C6E7D21D43
:104C400022F00703D3E90023C0E70368126843F0AA
:104C5000200303600823C3610023B7E79015000019
:104C60002DE9F05F894604464FF0000ADFF874B181
:104C7000FB44C0F820A02046E1688847002874D093
:104C8000252806D0D4E901219047206A401C2062E3
:104C9000F1E700265F462046E16888472028054660
:104CA00007DB312D05D2781910F8200C08B1064326
:104CB000F1E7B00701D526F00406C4F81CA00027D0
:104CC000C4F818A02A2D09D0284601F005FA38B3F7
:104CD00004EB8708303DC8F8185019E059F8041B58
:104CE000204604EB87029161E1688847012F054661
:104CF00018D1E069002820DA26F020061DE0D8F857
:104D0000180000EB800005EB40003038C8F81800B0
:104D10002046E1688847054601F0DEF90028EED11B
:104D2000012F0AD02E2D08D12046E16888477F1C2C
:104D30000546022F46F02006C4DBA069002803DAEE
:104D4000404246F00106A061F00701D026F01006AF
:104D50006C2D0BD0682D09D04C2D39D06A2D35D053
:104D6000742D35D07A2D33D016E038E0E1682F4627
:104D700020468847B842054609D16C2F26D04FF40B
:104D80008060E168064320468847054604E06C2FB2
:104D90001AD04FF4807006430DB3A5F141001928D5
:104DA00002D8203546F400664A4629462046266049
:104DB0004E46FBF7D5F980B101280BD0F61D26F041
:104DC000070000F1080956E74020E4E78020D8E713
:104DD0000020D6E706F104094DE7284652E7206A8D
:104DE000BDE8F09F2015000040EA0103024630B5FF
:104DF0009B0710D14FF0013400E008C208C91D1B09
:104E00009D4315EAC41FF8D013F0FF0102F8011BFF
:104E10000DD01B0AF8E711F8013B002B02F8013B0B
:104E200005D011F8013B002B02F8013BF3D130BD56
:104E300010B5431C02E010F8011B71B18107FAD1D3
:104E40004FF0013202C88C1A8C4314EAC211F9D017
:104E5000C01A0A0603D0C01E10BDC01A10BD0A0435
:104E600001D0801E10BD0902FCD0401E10BD032AD7
:104E700040F2308010F0030C00F0158011F8013B77
:104E8000BCF1020F624498BF11F801CB00F8013B5E
:104E900038BF11F8013BA2F1040298BF00F801CB22
:104EA00038BF00F8013B11F0030300F04581083AD8
:104EB000C0F0088051F8043B083A51F804CBA0E850
:104EC0000810F5E7121D5CBF51F8043B40F8043BA5
:104ED000AFF30080D20724BF11F8013B11F801CBDA
:104EE00048BF11F8012B24BF00F8013B00F801CBAB
:104EF00048BF00F8012B704702F0FF0343EA03228A
:104F000042EA024200F04CB97047704770472DE901
:104F1000F0470D4699469246044600F12408016880
:104F2000880604D5E06921F01001216000E001202D
:104F3000A84201DD471B00E00027A1697A1902EBB6
:104F40000900081AA0612078C00602D42046FFF7A5
:104F500009FD002608E0D4E901211AF8060090476F
:104F6000206A401C761C20624E45F4DB2078C00687
:104F70000AD52046FFF7F6FC06E0D4E901213020EF
:104F80009047206A401C2062381EA7F10107F4DC1C
:104F900007E0D4E9012118F805009047206A401C79
:104FA0002062281EA5F10105F3DC2046FFF7F0FC86
:104FB0002078000602D50220BDE8F0870120FBE73B
:104FC00011680268006A530501D508700AE0D3052C
:104FD00001D5088006E0130603D5C217C1E9000217
:104FE00000E008600120704701694A1C02610878EE
:104FF000704700B58FB0CDE9013100210591054919
:105000007944CDE9031011466846FFF729FE0FB039
:1050100000BD0000E5FFFFFF0A6802F8010B0A600F
:10502000704710B5436913B1AFF3008001E0FFF79B
:10503000D2FC012010BD127800F124010A70002278
:105040004A700122EDE711684FF0FF32E9E710B531
:10505000436913B1AFF3008001E0FFF721FD0120A8
:1050600010BD128800F1240182840022C284012232
:10507000EDE711684FF0FF32E9E700002DE9F0415C
:105080008046D21D22F007020025D2E90002F52950
:1050900015A614D0011E72F1000106DA0023D0EB30
:1050A000030063EB020211A608E0D8F800108B079A
:1050B00001D50FA602E0490701D50EA6012511462C
:1050C000002408F1240704E000F092F830323A5549
:1050D000641C50EA0102F7D12B4632462146404675
:1050E000BDE8F041FFF713BF000000002D000000F5
:1050F0002B0000002000000070B516460C46054647
:1051000000F06EF8036893F80101012806D0FF2C27
:105110000FD8185D68B101202C7070BDD3F807015D
:105120003246214603F2071303442846BDE8704087
:1051300018474FF0FF3070BD10B5203AC0F00B801B
:10514000B1E81850203AA0E81850B1E81850A0E88B
:105150001850BFF4F5AF5FEA027C24BFB1E81850E5
:10516000A0E8185044BF18C918C0BDE810405FEA55
:10517000827C24BF51F8043B40F8043B08BF7047D1
:10518000D20728BF31F8023B48BF11F8012B28BFD6
:1051900020F8023B48BF00F8012B70474FF0000297
:1051A0000429C0F0128010F0030C00F07582CCF1DD
:1051B000040CBCF1020F18BF00F8012BA8BF20F8A7
:1051C000022BA1EB0C0100F067BA5FEAC17C24BF9F
:1051D00000F8012B00F8012B48BF00F8012B7047A5
:1051E00010B500F0A3FA001D10BD00BFFD0E0000B9
:1051F00030B5B0F10A024FEA900E71F100034EEAA9
:10520000817EB0EB0E0061EB91014FEA101E4EEA79
:10521000017E10EB0E0041EB11114FEA102E4EEA09
:10522000016E10EB0E0041EB11214FEA104E4EEAD9
:10523000014E10EB0E0041EB1141401841F100010D
:105240004FEAD00040EA41704FEAD10110EB8005EF
:105250004FEA810444EA907444EB01046D1944EB75
:105260000404521BA3414FF0000348BF0A3200D58B
:1052700030BD401C41F1000130BD70472DE9FF4FAA
:105280000C461E464FF0FF378BB0D2E90001DDF827
:1052900060800A908A46C1F30A5505B93D4600214F
:1052A00008464FF00000BAF1000F00F4400005DAA4
:1052B00000EB80004FF4400101EA50004FEA9059A2
:1052C000B9F1010F00DDB9460A9850EA4A000ED044
:1052D00044F61050A5F2FF3545432F14B8F1000FE6
:1052E0001ED07542291E1EDDC9F100021CE0B8F176
:1052F000010F4FF0000001D0302103E0F24305E040
:105300002154401CB042FBDB3046002200212154D6
:105310000B99C1F80880C1E900200FB0BDE8F08FFB
:10532000BD1B6D1CDEE74A4600DA694206A800F0A4
:1053300041FA06AB93E8070003AB83E80700504649
:105340000A9900F0FAFA8DE80700A0F500501F381E
:1053500000900398002D09DD42F21F014A460844DF
:1053600003A90390684600F059FD08E0A0F500503D
:105370004A461F3803A90390684600F063FD8DE894
:1053800007000004000C03D04FF0FF30410800E09C
:105390001046B8F1000F03D00022009215461EE01F
:1053A000751E05D4FFF724FF303262556D1EF9D506
:1053B000B3460122084302D000227F1C04E020787B
:1053C000302801D100227F1E002A099786D01DE0D7
:1053D000112D07DAFFF70CFF303262556D1C50EAD1
:1053E0000102F5D1084302D00098C8B10EE00021B7
:1053F000681E05E0235C625C63542254401E491C15
:105400008142F7DBAB46A81B401E0990002004F840
:105410000B000B98099AC0F80880C0E9002B7CE7C4
:1054200011264FF0000859E72DE9F04F8846044651
:10543000D21D22F0070191B0D1E90001CDE90A01A6
:1054400000F036FE02460B98C00F01D02D2007E079
:105450002068810701D52B2002E0202101EAC0004D
:10546000032A099001D0072A05DB0346414620465E
:1054700000F060F90BE12078800601D5E06900E0DA
:105480000620B8F1650F814606D0B8F1660F18D036
:10549000B8F1670F70D131E00020B9F1110F009021
:1054A00001DB112301E009F101030AAA01A90CA8FB
:1054B000FFF7E4FEDDE90C70002609F101058346E3
:1054C00047E001204B4600904FF000470AAA01A98F
:1054D0000CA8FFF7D3FEDDE90DB00C995D46002660
:1054E00010B909F101000D18B9EB050003D4C0F1A2
:1054F000FF3609F10105A5EB09002BE0B9F1010F19
:1055000001DA4FF001090020B9F1110F009048466F
:1055100001DD112300E003460AAA01A90CA8FFF748
:10552000ADFEDDE90C704D4600268346207800076D
:105530000AD4AB4500DA5D4601A8012D04DD41190E
:1055400011F8011C302907D04F4502DA17F1040F7A
:1055500004DA012082460FE06D1EEEE7002F02DC28
:10556000ED1B3E4403E0781CA84200DD7D1CB81B07
:1055700000F1010A4FF000472078000703D4AA4544
:1055800001DB4FF0FF3A0021B7F1004F0DF1430866
:105590008DF8431024D002202B23002F01DA7F4204
:1055A0002D230A21021EA0F1010000DC5FB197FB50
:1055B000F1FC97FBF1F201FB1C7C17460CF1300C5F
:1055C00008F801CDEEE7A8F1010003702188090574
:1055D00001D5452100E06521A0F1010800F8011C7A
:1055E00009980FA9A1EB0807FF1D00B1012041197F
:1055F00001EBEA70A1693844081A401EA0612078C6
:10560000C00602D42046FFF7ADF9099828B1D4E9C5
:1056100001219047206A401C20622078C00622D5D4
:105620002046FFF79FF91EE0002E04DBB34502DDA4
:1056300001A8805D00E03020D4E901219047206A74
:10564000401C2062761CAAF101005FEA000A0AD120
:1056500000F06CF8C0680168405CD4E90121904713
:10566000206A401C2062281EA5F10105DCDC07E051
:10567000D4E9012118F8010B9047206A401C2062F0
:10568000381EA7F10107F3DC2046FFF781F903205C
:1056900011B043E64FF0000200B51346944696461B
:1056A000203922BFA0E80C50A0E80C50B1F1200135
:1056B000BFF4F7AF090728BFA0E80C5048BF0CC0E3
:1056C0005DF804EB890028BF40F8042B08BF704741
:1056D00048BF20F8022B11F0804F18BF00F8012BB3
:1056E0007047754600F0DEF8AE4605006946534641
:1056F00020F00700854618B020B5FFF709F8BDE88F
:1057000020404FF000064FF000074FF000084FF028
:10571000000B21F00701AC46ACE8C009ACE8C009B9
:10572000ACE8C009ACE8C0098D4670470048704736
:10573000404000202DE9F0411F4604460326016841
:10574000072A01F4006004DB08B116A505E016A5E0
:1057500003E008B115A500E015A521F010002060B8
:10576000A069C01EA0610FB1401EA0612046FFF7D6
:10577000F9F84FB1D4E9012138469047206A401C1E
:105780002062C01C206206E0206AFAE7D4E9012109
:1057900015F8010B9047761EF8D22046FFF7F8F86F
:1057A000BDE8F0814E414E006E616E00494E4600EC
:1057B000696E66002DE9F047814616468AB0334887
:1057C00078440DC88DE80D0030487844801C03AC47
:1057D0000DC884E80D0041F69B300844372190FB4A
:1057E000F1F290FBF1F5A5F1800501FB12041B3CE1
:1057F00002D56442012000E00020DFF890A080463E
:105800000027FA44AAF1BE0A0DE0E00709D03246AB
:10581000684607EB47010AEB810100F013FB8DE8B6
:10582000070064107F1C002CEFD1184F7F44AC3F61
:1058300018E0E80714D007EB04100DF1180A90E8FF
:105840000E008AE80E00C068F04201D19819089055
:10585000324606A903A800F0F5FA03AB83E8070077
:105860006D10641C002DE4D132466946B8F1000F7A
:1058700003A802D000F0D2FA01E000F0E3FAC9E98F
:105880000001C9F808200AB0BDE8F087600A0000EE
:1058900010B50446AFF300802046BDE81040FAF78B
:1058A000C2BC000000487047204000204FF0013C7F
:1058B00050F8042B51F8043B9A4221D1A2EB0C037F
:1058C000934313EACC1317D150F8042B51F8043B3F
:1058D0009A4215D1A2EB0C03934313EACC130BD1DC
:1058E00050F8042B51F8043B9A4209D1A2EB0C0367
:1058F000934313EACC13DBD04FF00000704700BF96
:10590000D01A01BAB1FA81F101F0180122FA01F0BE
:10591000CB40C1F12001DBB2C0B2C01A2CFA01F3B6
:10592000D11A914311EAC311E6D1704701491820F9
:10593000ABBEFEE72600020070475FEA400C08BFDE
:1059400091F0000F4FEA8C234FEAC12243EA5151F4
:105950004FEA1C5018BF00F5F0404FEA300018BF66
:1059600041F000415FEA6C5C00F02980BCF1FF3F30
:1059700008BF40F080407047130C06BF12044FF080
:10598000100C4FF0000C130E04BF12020CF1080CA7
:10599000130F04BF12010CF1040C930F04BF92000B
:1059A0000CF1020CD30F04BF52000CF1010C114694
:1059B0004FF00002A0F11F00A0EB0C00704711F0A7
:1059C000004F08BF704731F000413FF4D5AF0B0CDA
:1059D00006BF09044FF0100C4FF0000C0B0E04BF73
:1059E00009020CF1080C0B0F04BF09010CF1040CA7
:1059F0008B0F04BF89000CF1020CCB0F04BF4900D0
:105A00000CF1010CCCF12003A0EB0C0022FA03F303
:105A100002FA0CF241EA030100F10100704720F0A4
:105A20007F4C80EA030023F07F47ACEB070303F5CC
:105A30007C5300F0004003F1FF032DE980494FEA59
:105A4000154B09B44FEA144325EA0B4E24EA0348E8
:105A50000FF2042606EB132749083E785FEA32026C
:105A600003FB0667C7F5000707FB06F64FEA543746
:105A70004FEAD64606F1020607FB066CCCF1005C45
:105A80004FEA1C472CEA074C07FB06F40CFB06F513
:105A900004EB15464FEA961634BF00204FF0004045
:105AA0004FEAD13706FB07FC4FEA1C4C0CFB0BF707
:105AB000D21B03FB0CF761EB07010CFB0EF7B0EBFD
:105AC000074072EB17420CFB08F734BFA2EB07420A
:105AD000B2EB074261EB17414FEA0C444FEA9107E2
